:020000040800F2
:10000000F8040020C1010008871B0008B51800088B
:10001000851B0008C1080008251C0008000000001E
:100020000000000000000000000000008B1B000822
:100030007509000800000000891B00088D1B0008DE
:10004000DB010008DB010008DB010008DB01000820
:10005000DB010008DB010008DB010008DB01000810
:10006000DB010008DB010008DB010008DB01000800
:10007000DB010008DB010008DB010008DB010008F0
:10008000DB010008DB010008DB010008DB010008E0
:10009000DB010008DB010008DB010008DB010008D0
:1000A000DB010008DB010008DB010008DB010008C0
:1000B000DB010008DB010008DB010008DB010008B0
:1000C000DB010008DB010008DB010008DB010008A0
:1000D000DB010008DB010008DB010008DB01000890
:1000E00079090008DB010008DB010008DB010008DA
:1000F000DB010008DB010008DB010008DB01000870
:10010000DB010008DB010008DB010008DB0100085F
:10011000DB010008DB010008DB010008DB0100084F
:10012000DB010008DB010008DB010008DB0100083F
:10013000C5080008DB010008DB010008DB0100083E
:10014000DB010008DB010008DB010008DB0100081F
:10015000DB010008DB010008DB010008DB0100080F
:10016000DB010008DB010008DB010008DB010008FF
:10017000DB010008DB010008DB01000800000000D3
:10018000DB010008DB010008DB010008DB010008DF
:10019000DB010008DB010008DB010008DB010008CF
:1001A000DB010008DB010008DB010008DFF80CD0F0
:1001B00000F098FA00480047651C0008F804002089
:1001C0000648804706480047FEE7FEE7FEE7FEE7F1
:1001D000FEE7FEE7FEE7FEE7FEE7FEE7091C000894
:1001E000AD0100082DE9F05F0546002092469B46D0
:1001F00088460646814640241BE02846414647463D
:10020000224600F0EFF953465A46C01A914110D3E6
:1002100011461846224600F0D6F92D1A67EB010860
:100220004F4622460120002100F0CDF917EB0009CE
:100230004E41201EA4F10104DFDC484631462A4627
:100240004346BDE8F09FD2B201E000F8012B491E01
:10025000FBD270470022F6E710B513460A46044663
:100260001946FFF7F0FF204610BD2DE9FE4F8046EE
:1002700081EA0300C00F0C46009021F0004123F0FA
:100280000045B8EB0200A94105D240462146904600
:100290001C460B46024623F00040104347D0270D72
:1002A000C7F30A00C3F30A510290401A0190402894
:1002B0006BDAC3F3130040F4801B0098924620B120
:1002C0000023D2EB030A63EB0B0B01985946C0F1F4
:1002D0004002504600F077F906460D465046594612
:1002E000019A00F08FF910EB08006141002487EAC1
:1002F000115284EAE7731A4340D0009A62B3019A1C
:10030000012A4FEA075215DC001B61EB02014FF096
:10031000004202EA0752CDE90042001C41F580117B
:1003200032462B4600F08FF903B0BDE8F08F40460F
:100330002146F9E7001B61EB0201001C41F5801327
:1003400000185B412018A2F5001747EB030140EAB3
:10035000D570B6196D4111E06D084FEA360645EAD1
:10036000C0754FEA0752001B61EB0201001C41F50A
:10037000801149084FEA30000019514132462B469E
:1003800003B0BDE8F04F00F04FB9009801224000E3
:100390000023D0EB020263EBE073009821464FEAA2
:1003A000E074B8EB000061EB0401E9E783F000437F
:1003B0005BE781F0004158E72DE9FE4F81EA030435
:1003C00004F0004421F0004100944FF0000B23F0B2
:1003D000004350EA01045ED052EA03045BD0C3F349
:1003E0000A54C1F30A552C44A4F2F3340194A0FB3F
:1003F0000254C1F3130141F48011C3F3130343F416
:10040000801301FB024400FB034E840A970A44EA6E
:10041000815447EA8357A4FB076802958D0A05FBC0
:1004200007854FEA932C04FB0C542705029D4FEAE5
:10043000065847EA1637B5EB08056EEB070C870E32
:10044000920E47EA811742EA8312A7FB0201B6EB3C
:100450000B0164EB00042B0D43EA0C335E1844EBF4
:100460001C50DA465146E7FB0201C5F313044FEA7C
:100470000B3343EA14534FEA0432019C43EA060368
:10048000A4F10C040294009CCDE900B400F0DBF868
:1004900003B0BDE8F08F00200146F9E72DE9F04DEB
:1004A00081EA030404F0004B21F0004514464FF0AC
:1004B000000A23F0004150EA050220D054EA01026C
:1004C0001DD0C5F30A570246C5F31303C1F3130049
:1004D000C1F30A5640F4801543F48013A7EB0608D5
:1004E000101BD64608F2FD3873EB050002D308F165
:1004F000010801E092185B41B8F1000F03DA002017
:100500000146BDE8F08D00204FF480110646844678
:100510000EE0171B73EB050705D3121B63EB0503F6
:1005200006434CEA010C49084FEA300092185B413F
:1005300050EA0107EDD152EA030012D082EA04002A
:1005400083EA0501084305D0101BAB4106D2012206
:10055000002306E000224FF0004302E06FF00102AA
:1005600053101AEB06004CEB085110EB0A0041EB5C
:100570000B01BDE8F04D00F057B80EB540F2334125
:1005800002910021CDE900110A460B4600F05BF80C
:1005900003B000BDC1F30A5210B5C1F3130140F21C
:1005A000FF3341F480119A4201DA002010BD40F27D
:1005B00033439A42A2F2334203DC524200F012F873
:1005C00010BD904010BD202A04DB203A00FA02F151
:1005D000002070479140C2F1200320FA03F3194331
:1005E00090407047202A04DB203A21FA02F00021D3
:1005F000704721FA02F3D040C2F120029140084333
:1006000019467047202A06DBCB17203A41FA02F040
:1006100043EAE07306E041FA02F3D040C2F120025F
:10062000914008431946704710B5141E73F1000439
:1006300008DA401C41F1000192185B411A4301D1D4
:1006400020F0010010BD2DE9F04D92469B4611B1FE
:10065000B1FA81F202E0B0FA80F220329046FFF760
:10066000B2FF04460F4640EA0A0041EA0B01534636
:100670005A46084313D0114653EA010019D0C8F175
:1006800040025046FFF7AEFF05460E46504659461B
:100690004246FFF798FF084305D0012004E02046BA
:1006A0003946BDE8F08D0020054346EAE0762C434C
:1006B00037430A986305E40AA0EB08000022FD0A0C
:1006C00044EA47540A3002D500200146E9E7010513
:1006D00010196941DDE9084500196941BDE8F04D8F
:1006E000A2E70000064C074D06E0E06840F0010379
:1006F00094E8070098471034AC42F6D3FFF75AFD50
:10070000B81C0008D81C000810B50146806B026CAC
:1007100012F0500F05D0026CD20626D500F03DFA3B
:1007200010BD016C41F40071016401688A6812F027
:10073000405F17D1027EAAB9CA6A12F4700F02D0C4
:100740008A6852050ED44A6822F020024A60016C81
:1007500021F480710164016CC90403D4016C41F07F
:100760000101016400F0CCF910BD806BC26CBDE8E2
:1007700010400846104710B5806B40210164416C61
:1007800041F00401416400F008FA10BD10B5806B1F
:1007900000F002FA10BD0000464910B54A6822F484
:1007A00040324A604A6843681A434A6001684A68AE
:1007B00022F480724A6001684A68036942EA0322AF
:1007C0004A6001684A6822F040724A6001684A68DB
:1007D00083681A434A6001688A6822F400628A606A
:1007E00001688A68C3681A438A60816A6FF0706220
:1007F000D14201688A6822F070628A6001688A6862
:100800000CD0836A1A438A6001688A6822F04052D9
:100810008A6001688A68C36A1A4301E022F0405284
:100820008A6001688A6822F002028A6001688A6828
:10083000037E42EA43028A6090F820100029016892
:100840004A680FD042F400624A6001684A6822F4A4
:1008500060424A6001684A68174C436A04EB4333BC
:100860001A4301E022F400624A600168CA6A22F475
:100870007002CA620168CA6A838B104C04EB03538E
:100880001A43CA6201688A6822F400728A600168A9
:100890008A6890F8303042EA43228A6001688A68A8
:1008A00022F480628A6001688A68406942EA802096
:1008B000886010BD0023014000E0FFFF0000F0FF52
:1008C000FEE70000014800F05BBA0000780000205D
:1008D00001681823CAB2103AB2FBF3F2054B6FF36A
:1008E0000901032A9B5CC36500D9091D816508467F
:1008F00070470000A01C000810B5014600208B695D
:100900008A6A4FF0C07453B1B3F5005F15D072B16D
:10091000012A0CD0022A0AD0032A09D104E01AB114
:10092000012A06D0022A03D1C96AC90100D50120D3
:1009300010BDC96AA142FAD010BD002AF7D0012A21
:10094000F2D0022AF3D0032AF3D010BD30B50468E8
:10095000256825F480252560046863608368402B42
:10096000036803D099600068C26030BD9A60006877
:10097000C16030BD7047000010B510220449054821
:1009800000F066F9BDE810404FF4005000F06ABB7B
:10099000D8000020100000207047000078B5002427
:1009A000009490F83C20012A19D0012280F83C20C4
:1009B0000A6807230568092A13D9EE680A3A02EB88
:1009C000420293409E43EE600B788A680A3B03EB39
:1009D00043039A400368DD682A43DA6010E002208E
:1009E00078BD2E6902EB420293409E432E610B7844
:1009F0008A6803EB43039A4003681D692A431A611E
:100A00004A681F23072A13D205686E6B521E02EB39
:100A1000820293409E436E630A8893B20A79521E03
:100A200002EB820293400268556B2B43536327E02D
:100A300005680D2A12D22E6BD21F02EB8202934060
:100A40009E432E630B790A88DB1F92B203EB83036C
:100A50009A4003681D6B2A431A6311E0EE6A0D3A4F
:100A600002EB820293409E43EE620B790A880D3BB3
:100A700092B203EB83039A400368DD6A2A43DA6289
:100A80001B4B0568194A9D420AD10D68122D07D1EA
:100A9000556825F400055560556845F48005556096
:100AA00005689D421DD1134D0B68AB4201D0112B3F
:100AB00017D1536823F480035360536843F4000351
:100AC00053600968A9420CD10B490C4A0968B1FB73
:100AD000F2F101EB8101490000E0491E009100297B
:100AE000FBD180F83C40002078BD0000002301408D
:100AF00000200140120000100C00002040420F00B6
:100B000070B5194D234E00242DED0A8B9FED178BE8
:100B10009FED189B9FED19AB9FED1ABB9FED1BCB73
:100B200035F81400FFF729FD53EC182BFFF744FCB0
:100B300053EC192BFFF7B2FC53EC1A2BFFF736FCE2
:100B400053EC1B2BFFF7AAFC53EC1C2BFFF78DFB80
:100B5000FFF720FD26F81400641CE4B2102CDFD34C
:100B6000BDEC0A8B70BD0000D8000020666666668A
:100B700066660A400000000000FEAF4052B81E85C5
:100B8000EB51E83F000000000000044000000000BE
:100B900000003940580000207047704770B50400CD
:100BA0004FF0000503D0206C002610B107E00120B3
:100BB00070BD204600F01CF8666484F83C60206C30
:100BC000C00610D4206C20F4885040F0020020644D
:100BD0002046FFF7E1FD6664206C20F0020040F043
:100BE0000100206400E0012584F83C60284670BDC7
:100BF00038B5054600681249884220D111480021C5
:100C0000026842F4807202600068104C00F4807048
:100C100000900D48C4E900010015A160C4E903106B
:100C2000400060618000C4E90601216220466162E3
:100C300000F076F908B1FFF7AFFEAC63A56338BDED
:100C400000200140443802407064024078000020D7
:100C5000F8B50E4600210446009190F83C000128AA
:100C600007D0012084F83C0020688368DB0702D0AD
:100C700011E00220F8BD836843F001038360374828
:100C8000374B0068B0FBF3F000EB400000E0401E83
:100C900000900028FBD120688368DB075CD0236CC0
:100CA00040F20165AB4343F4807323644068400520
:100CB00005D5206C20F4005040F480502064206C56
:100CC000C00404D5606C20F00600606400E061643C
:100CD00084F83C10A16B2448224DC863A16B2348C3
:100CE0000864A16B2248C86421686FF02200086084
:100CF0002068416841F0806141602068816841F46A
:100D0000807181602168134632464C31A06B00F03F
:100D100071F968681749C006206806D088421BD15F
:100D2000816811F0405F13D016E08842F8D0124A73
:100D3000904203D1D1F80423D206F1D00F4A904259
:100D40000AD1D1F8041301F01F011029E8D303E000
:100D5000816841F0804181600020F8BD0C000020D6
:100D600040420F0000230140090700088D070008DA
:100D700077070008002001400021014000220140C7
:100D80002DE9F84304464FF00009CDF80090634880
:100D90004FF41651A56D0068B0FBF1F72E6894F87A
:100DA0005C10082000FA01F131420FD021680A6876
:100DB00052070BD50A6822F004020A6094F85C100E
:100DC0008840A860606D40F00100606594F85C1098
:100DD0004FF0010808FA01F0304208D02168496953
:100DE000090604D5A860606D40F00200606594F8C3
:100DF0005C1004208840304208D0216809688907C7
:100E000004D5A860606D40F00400606594F85C1043
:100E100010208840304218D021680968090714D58D
:100E2000A86020680168490304D50068000308D55C
:100E3000A16C07E00168C90503D4016821F008012D
:100E40000160216C09B12046884794F85C1020208D
:100E50008840304231D021680968C9062DD5A86084
:100E600094F8350005282068016806D0490347D565
:100E7000006800031DD4616C1CE021F016010160C4
:100E80002068416921F080014161206C08B9A06CA3
:100E900020B12068016821F00801016094F85C101D
:100EA0003F208840A86084F8349084F83580216D14
:100EB0001FE0E16B09B120468847606D00282BD008
:100EC000606DC00714D0052084F8350020680168E3
:100ED00021F0010101600098401C0090B84203D845
:100EE00020680068C007F6D184F8349084F8358013
:100EF000E16C002910D001B02046BDE8F04308475E
:100F00000168C905D5D4016821F01001016084F899
:100F1000349084F83580CCE7BDE8F8830C000020DD
:100F20002DE9F041044600F099F906465CB1002530
:100F300084F83450022084F835002068016821F0DC
:100F4000010101600DE00120BDE8F08100F086F9AB
:100F5000801B052805D920206065032084F8350012
:100F6000F2E720680068C007F0D1226811682048C5
:100F70000140D4E901031843D4E90336334318434D
:100F800063691843A3691843E3691843236A184344
:100F90000843616A042903D1D4E90B1319430843B8
:100FA000106020684069666A20F0070130460E43F1
:100FB000012704280CD1A06A0643E06A40B120460C
:100FC000FFF79AFC20B14020606584F83570BAE7DD
:100FD000206846612046FFF77BFC94F85C203F21A7
:100FE00091408160656584F835700020ACE70000B1
:100FF0003F8010F02DE9F0410446866D90F83400F2
:10100000002501280DD0012084F8340094F83570B3
:101010000020012F07D084F8340002252846BDE8BF
:10102000F0810220FBE7022784F8357060652046D6
:10103000FFF78CFC94F85C103F208840B06020687B
:10104000016841F016010160206C20B12068016840
:1010500041F0080101602068016841F00101016070
:10106000DCE77047044910B50A68024202D0086004
:10107000FFF7F7FF10BD0000143C01402DE9F84FC9
:1010800000224FF0010803254FF00F0E0B6808FAFD
:1010900002F42340A3426ED14E68012E05D0022EE9
:1010A00003D0112E01D0122E12D186684FEA420CC5
:1010B00005FA0CF7BE43CF6807FA0CF73743876091
:1010C0004668A6430C79C4F300149440344344604A
:1010D000C668570005FA07FC8C6826EA0C06BC4077
:1010E0003443C4604C68022C01D0122C13D1D408B4
:1010F00000EB8404A346D4F8209054074FEAD46A46
:101100000EFA0AF629EA06090E6906FA0AF646EA0E
:101110000906CBF8206004680E7924EA0C0406F076
:101120000306BE40264306604C68E4006FD53B4C86
:10113000266846F480462660246822F0030604F4FC
:1011400080440094364C3444A446D4F808489607AA
:10115000360F0EFA06F7BC43324FB84201D10027D2
:101160002EE0314FB84201D1012729E02F4FB8427C
:1011700002D1022724E04AE02D4FB84201D10327D3
:101180001EE02C4FB84201D1042719E02A4FB84283
:1011900001D1052714E0294FB84201D106270FE0FD
:1011A000274FB84201D107270AE0264FB84201D1A4
:1011B000082705E0244FB84201D1092700E00A279B
:1011C000B7402743CCF80878204E34684F689C43DA
:1011D000FF0300D51C4334601C4E361D34684F6835
:1011E0009C43BF0300D51C433460184E0836346856
:1011F0004F689C43FF0200D51C433460134E0C36ED
:1012000034684F689C43BF0200D51C433460521CB5
:10121000102AFFF43BAFBDE8F88F000044380240CD
:10122000003001400000024000040240000802407B
:10123000000C02400010024000140240001802405E
:10124000001C02400020024000240240003C0140FB
:101250000AB1816170470904FBE70000014880681A
:1012600070470000000000200248816802781144A5
:1012700081607047000000200B4810B5016841F400
:1012800000710160016841F480610160016841F40E
:1012900080710160032000F06FF8002000F006F874
:1012A00000F024F8002010BD003C024070B50D4D48
:1012B00004464FF47A712878B1FBF0F00A490968C6
:1012C000B1FBF0F000F0E2FA48B9102C07D200228E
:1012D0002146501E00F030F800206C6070BD0120E7
:1012E00070BD0000000000200C0000200A4808B576
:1012F000016841F480410160006800F48040009082
:101300000548001F016841F080510160006800F04D
:101310008050009008BD000044380240002809DBDE
:1013200000F01F02012191404009800000F1E020FF
:10133000C0F8001170470000F0B40E4B1B680C465B
:10134000C3F30223C3F10705042D00D90425191D99
:10135000072901D2002300E0DB1E012606FA05F171
:10136000491E214099409E40761E16403143F0BCF4
:1013700000F059BC0CED00E0064900F007020868D7
:101380004FF6FF03184040EA0220034A104308606A
:10139000704700000CED00E00000FA052DE9F04771
:1013A0000E46050065D0DFF81481D8F80000F7B2CA
:1013B00000F00F00B04207D288F80070D8F80000A3
:1013C00000F00F00B04254D128683D4C810712D57F
:1013D000400703D5206840F4E050206028780007DB
:1013E00003D5206840F4604020602068A96820F0A0
:1013F000F000084320602878C0072DD03049686885
:101400000839012812D0022813D0032811D0096806
:10141000890700292DDA216821F0030101432160A9
:10142000FFF71CFF814641F2883A0EE00968890304
:10143000EFE709688901ECE7FFF710FFA0EB09016E
:10144000514502D90320BDE8F0872068696800F0A3
:101450000C00B0EB810FEFD1D8F80010404601F03E
:101460000F01B14207D90770006800F00F00B042C9
:1014700001D00120E7E72878400705D52068E96812
:1014800020F4E050084320602878000706D5206843
:10149000296920F4604040EAC100206000F018F89B
:1014A0002168084AC1F30311515CC840064908602D
:1014B00006480068FFF7FAFE0020C4E7003C02403F
:1014C00008380240A81C00080C000020040000207E
:1014D000154810B5006810F00C02144813D04110E4
:1014E000042A0FD0082A0ED10F4C241F226823682B
:1014F00002F03F025B0207D52068C0F38810A0FB12
:10150000010106E0084610BD2168C1F38811A1FB66
:1015100000010023FEF766FE2168C1F30141491C6A
:101520004900B0FBF1F010BD083802400024F4007F
:101530002DE9F84F040076D02078DFF838A3CE4D9F
:10154000C00749D0DAF800105046C1F381010129E3
:1015500008D00068C0F3810002280AD1281D006865
:10156000400206D52868800336D560680028E2D09E
:1015700032E06068B0F5803F10D0B0F5A02F286849
:1015800010D020F480302860286820F48020286063
:101590006068A0B1FFF762FE06460CE0286840F4E0
:1015A0008030F4E740F480202860F7E7FFF756FE2C
:1015B000801B642873D828688003F7D50CE0FFF7F8
:1015C0004DFE064605E000BFFFF748FE801B64287D
:1015D000F0D828688003F7D42078DFF8A08280074D
:1015E0004FF000093ED5DAF80010504611F00C0F0C
:1015F00009D00068C0F3810002280BD19D48001F6C
:101600000068400206D42868800715D5E0680128E4
:1016100009D111E0E068B8B10120C8F80000FFF777
:101620001DFE064605E020E1FFF718FE801B02289C
:10163000C0D828688007F7D52868216920F0F8000D
:1016400040EAC10028600DE0C8F80090FFF706FEF0
:10165000064604E0FFF702FE801B02281FD8286818
:101660008007F7D42078000722D5824E844861692C
:101670006C3671B101210160FFF7F0FD074604E00F
:10168000FFF7ECFDC01B022809D830688007F7D5AA
:101690000EE0C0F80090FFF7E1FD074605E082E0AC
:1016A000FFF7DCFDC01B02287DD830688007F7D427
:1016B0002078400768D5DFF8BCB100270BF1380B64
:1016C000DBF80000C0000BD4DBF8001041F08051C3
:1016D000CBF80010DBF80000012700F080500090EC
:1016E000684E3068C00510D4306840F480703060B7
:1016F000FFF7B4FD009005E0FFF7B0FD0099401A38
:10170000022850D83068C005F6D55A4EA068683611
:1017100001280FD00528306810D020F0010030607B
:10172000306820F004003060A068B8B1FFF796FD83
:1017300000900FE0306840F00100F4E740F0040052
:101740003060F7E7FFF78AFD0099411A41F28830CF
:10175000814266D830688007F4D50EE0FFF77EFD41
:10176000009007E0FFF77AFD0099411A41F28830B6
:10177000814256D830688007F4D42FB1DBF80010CE
:1017800021F08051CBF80010A069D0B3DAF8002026
:101790005146C2F38102022A4AD00228484607D0A5
:1017A000C8F8600000E03CE0FFF758FD04463BE06D
:1017B0004746C8F86000FFF751FD064605E000BF48
:1017C000FFF74CFD801B02282BD828688001F7D436
:1017D000D4E907010843A16A2B4A490802EB0141F9
:1017E000626A41EA8211084394F82C1040EA0161D0
:1017F0002048001F016001203866FFF72FFD0446D6
:1018000005E034E0FFF72AFD001B022809D828680C
:101810008001F7D52BE000BFFFF720FD001B022859
:1018200002D90320BDE8F88F28688001F4D41EE0B7
:101830000128F7D00868E26900F48001914214D1D0
:10184000226A00F03F0191420FD147F6C071626AEF
:101850000140914209D1A26A00F44031914204D181
:10186000E16A00F07060884201D00120DAE70020D0
:10187000D8E7000008380240003802400000474224
:10188000800E4742007000400000FFFF10B5401E70
:10189000B0F1807F01D3012010BD4FF0E0246061E2
:1018A0000F21601700F0BFF90020A0610720206120
:1018B000002010BDFEE700007FB500243E480094E4
:1018C000019402943B490394C0E900140125056189
:1018D0008460057680F820403849C0E90A14102653
:1018E000C661C46080F830504561FFF757F934484D
:1018F000CDE90005694602942F48FFF74FF8022012
:10190000019069462C48FFF749F803200190694689
:101910002948FFF743F80420019069462648FFF75D
:101920003DF80520019069462348FFF737F8062067
:10193000019069462048FFF731F807200190694679
:101940001D48FFF72BF80820019069461A48FFF759
:1019500025F80920019069461748FFF71FF80A206B
:10196000019069461448FFF719F80B200190694669
:101970001148FFF713F80C20019069460E48FFF755
:101980000DF80D20019069460B48FFF707F80E206F
:10199000019069460848FFF701F80F200190694659
:1019A0000548FEF7FBFF694603480196FEF7F6FF80
:1019B0007FBD000000200140100000200100000F4A
:1019C000120000102DE9F04F87B014216846FEF791
:1019D00041FC65480024016841F004010160016890
:1019E00001F004010591016841F080010160016886
:1019F00001F080010591016841F001010160016879
:101A000001F001010591016841F0020101600168E6
:101A100001F002010591016841F0080101600168CF
:101A200001F008010591016841F040010160006882
:101A3000DFF838B100F040004FF4814A05900022F1
:101A400051465846FFF704FC002240214848FFF762
:101A5000FFFB4FF40079002249464648FFF7F8FBA8
:101A60004FF400584448CDF80080CDE901046946A0
:101A70004048FFF703FB32200225CDE9000502AA0A
:101A800003260B2782E8D00069463A48FFF7F6FAAA
:101A90008620CDE9000502AA694682E8D0003748D1
:101AA000FFF7ECFA02AA694682E8D000CDE900858A
:101AB0005846FFF7E3FA4FF00108CDF800A0CDE952
:101AC0000184694658460394FFF7D8FA3002CDE9FD
:101AD000000502940720CDE9036069462848FFF716
:101AE000CDFA40200090CDE9018469462048039456
:101AF000FFF7C4FA8020CDE9000469461C4802942F
:101B0000FFF7BCFACDF80090CDE901846946194889
:101B10000394FFF7B3FA4FF4E850CDE900050294BF
:101B20000A20CDE9036069461448FFF7A7FACDE91A
:101B30000094694611480294FFF7A0FA4FF4205030
:101B4000CDE9000502AA694682E8D0000848FFF7FF
:101B500095FA002211462820FFF7EEFB2820FFF718
:101B6000DDFB07B0BDE8F08F3038024000040240D2
:101B7000001802400008024000001110000002405E
:101B8000000C0240FEE7704770477047FFF76CBBE0
:101B900010B592B030216846FEF75CFB14210CA80A
:101BA000FEF758FB16480024016841F0805101609F
:101BB000006800F0805011901248016821F4404103
:101BC00041F4804101600068069400F440401190A7
:101BD0000220009001200390102004906846FFF737
:101BE000A7FC0F20CDE90C044FF48050CDE90E4046
:101BF00000210CA81094FFF7D1FB12B010BD00001B
:101C000040380240007000400548016841F470010E
:101C1000016003494FF000608039086070470000A0
:101C200088ED00E0FEE70907090E002804DB00F15B
:101C3000E02080F80014704700F00F0000F1E02071
:101C400080F8141D704702E008C8121F08C1002A5E
:101C5000FAD170477047002001E001C1121F002A2D
:101C6000FBD1704708B5FFF707FBFFF791FFFFF7C0
:101C7000A9FE0A48016841F4800101600068002261
:101C800000F48000009011463C20FFF755FB3C20FB
:101C9000FFF744FBFFF710FEFEE70000303802407C
:101CA00000061016000610160000000000000000DC
:101CB0000102030406070809D81C000800000020E0
:101CC00010000000461C0008E81C0008100000205E
:101CD000E8040000561C000801000000100000008D
:081CE000000000000024F400E4
:04000005080001AD41
:00000001FF
