:020000040800F2
:10000000C0040020C101000883100008210F00086F
:1000100081100008CD020008311100080000000026
:100020000000000000000000000000008710000831
:100030007503000800000000851000088910000802
:10004000DB010008DB010008DB010008DB01000820
:10005000DB010008DB010008DB010008DB01000810
:10006000DB010008DB010008DB010008DB01000800
:10007000DB010008DB010008DB010008DB010008F0
:10008000DB010008DB010008DB010008DB010008E0
:10009000DB010008DB010008DB010008DB010008D0
:1000A000DB010008DB010008DB010008DB010008C0
:1000B000DB010008DB010008DB010008DB010008B0
:1000C000DB010008DB010008DB010008DB010008A0
:1000D000DB010008DB010008DB010008DB01000890
:1000E000DB010008DB010008DB010008DB01000880
:1000F000DB010008DB010008DB010008DB01000870
:10010000DB010008DB010008DB010008DB0100085F
:10011000DB010008DB010008DB010008DB0100084F
:10012000DB010008DB010008DB010008DB0100083F
:10013000DB0100087903000885030008DB010008E3
:10014000DB010008DB010008DB010008DB0100081F
:10015000DB010008DB010008DB010008DB0100080F
:10016000DB010008DB010008DB010008DB010008FF
:10017000DB010008DB010008DB01000800000000D3
:10018000DB010008DB010008DB010008DB010008DF
:10019000DB010008DB010008DB010008DB010008CF
:1001A000DB010008DB010008DB010008DFF80CD0F0
:1001B00000F07AF80048004771110008C0040020E0
:1001C0000648804706480047FEE7FEE7FEE7FEE7F1
:1001D000FEE7FEE7FEE7FEE7FEE7FEE71511000893
:1001E000AD0100082DE9F05F0546002092469B46D0
:1001F00088460646814640241BE02846414647463D
:10020000224600F041F853465A46C01A914110D395
:1002100011461846224600F028F82D1A67EB01080F
:100220004F4622460120002100F01FF817EB00097D
:100230004E41201EA4F10104DFDC484631462A4627
:100240004346BDE8F09FD2B201E000F8012B491E01
:10025000FBD270470022F6E710B513460A46044663
:100260001946FFF7F0FF204610BD202A04DB203A94
:1002700000FA02F1002070479140C2F1200320FAF9
:1002800003F3194390407047202A04DB203A21FAF7
:1002900002F00021704721FA02F3D040C2F120029F
:1002A0009140084319467047064C074D06E0E06848
:1002B00040F0010394E8070098471034AC42F6D3AD
:1002C000FFF778FFEC1100080C120008FEE70000B1
:1002D00001681823CAB2103AB2FBF3F2054B6FF370
:1002E0000901032A9B5CC36500D9091D8165084685
:1002F00070470000D411000810B5014600208B693A
:100300008A6A4FF0C07453B1B3F5005F15D072B173
:10031000012A0CD0022A0AD0032A09D104E01AB11A
:10032000012A06D0022A03D1C96AC90100D50120D9
:1003300010BDC96AA142FAD010BD002AF7D0012A27
:10034000F2D0022AF3D0032AF3D010BD30B50468EE
:10035000256825F480252560046863608368402B48
:10036000036803D099600068C26030BD9A6000687D
:10037000C16030BD70470000014800F084B9000042
:1003800018000020014800F07EB90000180000208D
:100390002DE9F0410446876D00F0A4FA064694F872
:1003A00035000025022806D08020606584F834508E
:1003B0000120BDE8F0812068016821F0160101608C
:1003C0002068416921F080014161206C08B9A06C6E
:1003D00020B12068016821F00801016020680168EF
:1003E00021F0010101600BE000F07CFA801B052880
:1003F00006D92020606504F8345F03206070D8E7D8
:1004000020680068C007EFD194F85C103F20884056
:10041000B86004F8345F012060700020C9E7000074
:100420002DE9F041044600F05DFA06465CB1002576
:1004300084F83450022084F835002068016821F0E7
:10044000010101600DE00120BDE8F08100F04AFAF1
:10045000801B052805D920206065032084F835001D
:10046000F2E720680068C007F0D1226811682048D0
:100470000140D4E901031843D4E903363343184358
:1004800063691843A3691843E3691843236A18434F
:100490000843616A042903D1D4E90B1319430843C3
:1004A000106020684069666A20F0070130460E43FC
:1004B000012704280CD1A06A0643E06A40B1204617
:1004C000FFF71AFF20B14020606584F83570BAE765
:1004D000206846612046FFF7FBFE94F85C203F2130
:1004E00091408160656584F835700020ACE70000BC
:1004F0003F8010F02DE9F74F82B004460020894676
:10050000019000F0EFF9009094F8350000270228E0
:1005100004D08020606584F8347068E0206800684A
:10052000C00503D54FF48070606560E094F85C000E
:100530004FF0200B4FF0100AB9F1000F06D00AFA65
:1005400000F6A56D28684FF001083AE00BFA00F6B6
:10055000F7E70498401C12D0049830B100F0C2F9BB
:100560000099411A0498814209D9C4F854B004F89A
:10057000347F84F80180032005B0BDE8F08F28683F
:1005800094F85C2008219140014204D0626D42F051
:1005900001026265A96094F85C2008FA02F1014248
:1005A00004D0626D42F002026265A96094F85C209A
:1005B00004219140014204D0626D42F00402626560
:1005C000A960304202D1606DC007C2D0606D302694
:1005D00078B1606DC0070CD02046FFF7D9FE94F8C3
:1005E0005C008640AE6004F8347F84F8018001200E
:1005F000C2E7B9F1000F06D094F85C100AFA01F0D6
:10060000A8600198B8E794F85C008640AE6004F8F2
:10061000347F84F80180F4E770B5044690F8340024
:10062000002501280CD0012084F8340094F83560AE
:100630000020012E06D084F834000225284670BD23
:10064000022070BD022684F8356060652046FFF701
:100650007DFE2068016841F001010160EEE70000C5
:1006600070B5044600F03EF90546601C02D004480F
:100670000078044400F036F9401BA042FAD370BD64
:1006800008000020704770B50446006800F58050EF
:1006900041694FF0000549064FF0010608D5204694
:1006A00000F02EF82068402100F58050416109E0FB
:1006B0004069C0070AD0204600F023F8206800F502
:1006C0008050466184F8446084F8455020684FF4B7
:1006D000803100F580504161206800F5805040690C
:1006E00000040CD52046FFF7CDFF20684FF40041F1
:1006F00000F58050416184F8446084F8455070BD35
:10070000704770472DE9F84F00224FF0010803258C
:100710004FF00F0E0B6808FA02F42340A3426ED18B
:100720004E68012E05D0022E03D0112E01D0122EBC
:1007300012D186684FEA420C05FA0CF7BE43CF6827
:1007400007FA0CF7374387604668A6430C79C4F371
:100750000014944034434460C668570005FA07FC0F
:100760008C6826EA0C06BC403443C4604C68022CFA
:1007700001D0122C13D1D40800EB8404A346D4F882
:10078000209054074FEAD46A0EFA0AF629EA0609BD
:100790000E6906FA0AF646EA0906CBF820600468F4
:1007A0000E7924EA0C0406F00306BE4026430660D8
:1007B0004C68E4006FD53B4C266846F480462660C2
:1007C000246822F0030604F480440094364C344438
:1007D000A446D4F808489607360F0EFA06F7BC432D
:1007E000324FB84201D100272EE0314FB84201D13B
:1007F000012729E02F4FB84202D1022724E04AE026
:100800002D4FB84201D103271EE02C4FB84201D131
:10081000042719E02A4FB84201D1052714E0294FD7
:10082000B84201D106270FE0274FB84201D1072770
:100830000AE0264FB84201D1082705E0244FB8420C
:1008400001D1092700E00A27B7402743CCF80878F0
:10085000204E34684F689C43FF0300D51C4334602E
:100860001C4E361D34684F689C43BF0300D51C43A3
:100870003460184E083634684F689C43FF0200D538
:100880001C433460134E0C3634684F689C43BF02DF
:1008900000D51C433460521C102AFFF43BAFBDE866
:1008A000F88F000044380240003001400000024050
:1008B0000004024000080240000C02400010024008
:1008C0000014024000180240001C024000200240B8
:1008D00000240240003C01400AB1816170470904D4
:1008E000FBE7000001488068704700000800002016
:1008F0000248816802781144816070470800002036
:100900000B4810B5016841F400710160016841F4C1
:1009100080610160016841F480710160032000F092
:1009200061F8002000F006F800F024F8002010BD67
:10093000003C024070B50D4D04464FF47A712878A2
:10094000B1FBF0F00A490968B1FBF0F000F0D4FA0D
:1009500048B9102C07D200222146501E00F022F880
:1009600000206C6070BD012070BD000008000020F8
:10097000140000200A4808B5016841F48041016074
:10098000006800F4804000900548001F016841F0B5
:1009900080510160006800F08050009008BD0000A8
:1009A00044380240F0B40E4B1B680C46C3F30223DC
:1009B000C3F10705042D00D90425191D072901D20B
:1009C000002300E0DB1E012606FA05F1491E214046
:1009D00099409E40761E16403143F0BC00F0A9BB02
:1009E0000CED00E0064900F0070208684FF6FF032F
:1009F000184040EA0220034A104308607047000094
:100A00000CED00E00000FA052DE9F0470E46050068
:100A100065D0DFF81481D8F80000F7B200F00F00BD
:100A2000B04207D288F80070D8F8000000F00F003C
:100A3000B04254D128683D4C810712D5400703D5F8
:100A4000206840F4E05020602878000703D5206833
:100A500040F4604020602068A96820F0F00008435E
:100A600020602878C0072DD03049686808390128EF
:100A700012D0022813D0032811D009688907002951
:100A80002DDA216821F0030101432160FFF72AFFDD
:100A9000814641F2883A0EE009688903EFE7096868
:100AA0008901ECE7FFF71EFFA0EB0901514502D9D0
:100AB0000320BDE8F0872068696800F00C00B0EB07
:100AC000810FEFD1D8F80010404601F00F01B1427C
:100AD00007D90770006800F00F00B04201D0012074
:100AE000E7E72878400705D52068E96820F4E0505A
:100AF000084320602878000706D52068296920F47B
:100B0000604040EAC100206000F018F82168084AFF
:100B1000C1F30311515CC8400649086006480068EB
:100B2000FFF708FF0020C4E7003C024008380240FD
:100B3000DC110008140000200C000020154810B53E
:100B4000006810F00C02144813D04110042A0FD092
:100B5000082A0ED10F4C241F2268236802F03F029E
:100B60005B0207D52068C0F38810A0FB010106E0F6
:100B7000084610BD2168C1F38811A1FB00010023C4
:100B8000FFF730FB2168C1F30141491C4900B0FB6C
:100B9000F1F010BD083802400024F4002DE9F84FB0
:100BA000040076D02078DFF838A3CE4DC00749D0B6
:100BB000DAF800105046C1F38101012908D000681D
:100BC000C0F3810002280AD1281D0068400206D522
:100BD0002868800336D560680028E2D032E060687B
:100BE000B0F5803F10D0B0F5A02F286810D020F4C9
:100BF00080302860286820F4802028606068A0B1D8
:100C0000FFF770FE06460CE0286840F48030F4E7F9
:100C100040F480202860F7E7FFF764FE801B64281B
:100C200073D828688003F7D50CE0FFF75BFE064613
:100C300005E000BFFFF756FE801B6428F0D8286847
:100C40008003F7D42078DFF8A08280074FF00009F6
:100C50003ED5DAF80010504611F00C0F09D00068AC
:100C6000C0F3810002280BD19D48001F006840029C
:100C700006D42868800715D5E068012809D111E05D
:100C8000E068B8B10120C8F80000FFF72BFE064667
:100C900005E020E1FFF726FE801B0228C0D8286867
:100CA0008007F7D52868216920F0F80040EAC100E4
:100CB00028600DE0C8F80090FFF714FE064604E037
:100CC000FFF710FE801B02281FD828688007F7D482
:100CD0002078000722D5824E844861696C3671B154
:100CE00001210160FFF7FEFD074604E0FFF7FAFD72
:100CF000C01B022809D830688007F7D50EE0C0F87D
:100D00000090FFF7EFFD074605E082E0FFF7EAFD00
:100D1000C01B02287DD830688007F7D420784007B0
:100D200068D5DFF8BCB100270BF1380BDBF8000009
:100D3000C0000BD4DBF8001041F08051CBF800105C
:100D4000DBF80000012700F080500090684E30680A
:100D5000C00510D4306840F480703060FFF7C2FDE9
:100D6000009005E0FFF7BEFD0099401A022850D818
:100D70003068C005F6D55A4EA068683601280FD0F5
:100D80000528306810D020F001003060306820F075
:100D900004003060A068B8B1FFF7A4FD00900FE038
:100DA000306840F00100F4E740F004003060F7E7FD
:100DB000FFF798FD0099411A41F28830814266D8C8
:100DC00030688007F4D50EE0FFF78CFD009007E057
:100DD000FFF788FD0099411A41F28830814256D8C8
:100DE00030688007F4D42FB1DBF8001021F0805177
:100DF000CBF80010A069D0B3DAF800205146C2F356
:100E00008102022A4AD00228484607D0C8F860006A
:100E100000E03CE0FFF766FD04463BE04746C8F8CB
:100E20006000FFF75FFD064605E000BFFFF75AFDD3
:100E3000801B02282BD828688001F7D4D4E9070149
:100E40000843A16A2B4A490802EB0141626A41EA60
:100E50008211084394F82C1040EA01612048001FD9
:100E6000016001203866FFF73DFD044605E034E0EF
:100E7000FFF738FD001B022809D828688001F7D544
:100E80002BE000BFFFF72EFD001B022802D9032034
:100E9000BDE8F88F28688001F4D41EE00128F7D05F
:100EA0000868E26900F48001914214D1226A00F0DE
:100EB0003F0191420FD147F6C071626A01409142F1
:100EC00009D1A26A00F44031914204D1E16A00F0F4
:100ED0007060884201D00120DAE70020D8E70000E6
:100EE000083802400038024000004742800E474266
:100EF000007000400000FFFF10B5401EB0F1807F81
:100F000001D3012010BD4FF0E02460610F21601774
:100F100000F00FF90020A06107202061002010BD23
:100F2000FEE700000F4882B00021026842F4800210
:100F3000026000680C4A00F4800000900B48C0E991
:100F400000218022C0E90221016141618161042206
:100F5000C161C0E908120322C0E90A21016302B09D
:100F6000FFF75EBA30380240106402406000002093
:100F70002DE9F04387B014216846FFF76BF93B4831
:100F80000024016841F004010160016801F00401DE
:100F90000591016841F080010160016801F0800164
:100FA0000591016841F001010160016801F0010152
:100FB0000591016841F002010160016801F0020140
:100FC0000591016841F008010160016801F0080124
:100FD0000591016841F0400101600068244F00F074
:100FE00040004FF481450590002229463846FFF71E
:100FF00073FCDFF88080002240214046FFF76CFC44
:10100000DFF874907E15002231464846FFF764FCF5
:10101000300100901948CDE9010469464846FFF7C0
:1010200071FB00950125CDE90154694638460394CA
:10103000FFF768FB40200090CDE901546946404627
:101040000394FFF75FFB8020CDE90004694640462A
:101050000294FFF757FB0096CDE9015469464846D4
:101060000394FFF74FFB07B0BDE8F0833038024030
:101070000004024000180240000802400000111065
:10108000FEE7704770477047FFF732BC30B593B04A
:1010900030216846FFF7DEF814210CA8FFF7DAF8D4
:1010A0001A480025016841F080510160006800F095
:1010B000805011901648016841F440410160006879
:1010C000022400F440401190012000904FF4A02031
:1010D00001906005CDE9064004200890A820CDE9E4
:1010E000090407200B906846FFF758FD0CA90F2054
:1010F00081E831004FF4A0500F90E00210900521DC
:101100000CA8FFF781FC13B030BD0000403802404E
:10111000007000400548016841F470010160034916
:101120004FF00060803908607047000088ED00E0F3
:10113000FEE70907090E002804DB00F1E02080F833
:101140000014704700F00F0000F1E02080F8141D3B
:10115000704702E008C8121F08C1002AFAD1704780
:101160007047002001E001C1121F002AFBD1704727
:10117000FFF7C6FBFFF78AFFFFF7FAFEFFF7D2FE85
:10118000114C124F4FF0FF354FF47A76012322466F
:101190000E490F48FFF740FA2A4600210C48FFF796
:1011A000A9F93046FFF75CFA01232246391D0848A9
:1011B000FFF732FA2A4600210548FFF79BF930462F
:1011C000FFF74EFAE2E7000014040240000000209E
:1011D0006000002000061016000610160000000037
:1011E0000000000001020304060708090C120008B1
:1011F000000000201800000052110008241200080E
:1012000018000020A80400006211000880000000FF
:101210007FFFFFFF01000000100000000000000041
:041220000024F400B2
:04000005080001AD41
:00000001FF
