:020000040800F2
:1000000040050020C10100085F120008B11000087F
:100010005D120008CD020008D514000800000000A1
:100020000000000000000000000000006312000853
:10003000810300080000000061120008651200083A
:10004000DB010008DB010008DB010008DB01000820
:10005000DB010008DB010008DB010008DB01000810
:10006000DB010008DB010008DB010008DB01000800
:10007000DB010008DB010008D1020008DB010008F9
:10008000DB010008DB010008DB010008DB010008E0
:10009000DB010008DB010008DB010008DB010008D0
:1000A000DB010008DB010008DB010008DB010008C0
:1000B000DB010008DB010008DB010008DB010008B0
:1000C000DB010008DB010008DB010008DB010008A0
:1000D000DB010008DB010008DB010008DB01000890
:1000E00085030008DB010008DB010008DB010008D4
:1000F000DB010008DB010008DB010008DB01000870
:10010000DB010008DB010008DB010008DB0100085F
:10011000DB010008DB010008DB010008DB0100084F
:10012000DB010008DB010008DB010008DB0100083F
:10013000DB010008DB010008DB010008DB0100082F
:10014000DB010008DB010008DB010008DB0100081F
:10015000DB010008DB010008DB010008DB0100080F
:10016000DB010008DB010008DB010008DB010008FF
:10017000DB010008DB010008DB01000800000000D3
:10018000DB010008DB010008DB010008DB010008DF
:10019000DB010008DB010008DB010008DB010008CF
:1001A000DB010008DB010008DB010008DFF80CD0F0
:1001B00000F07AF8004800471515000840050020B7
:1001C0000648804706480047FEE7FEE7FEE7FEE7F1
:1001D000FEE7FEE7FEE7FEE7FEE7FEE7E1120008C6
:1001E000AD0100082DE9F05F0546002092469B46D0
:1001F00088460646814640241BE02846414647463D
:10020000224600F041F853465A46C01A914110D395
:1002100011461846224600F028F82D1A67EB01080F
:100220004F4622460120002100F01FF817EB00097D
:100230004E41201EA4F10104DFDC484631462A4627
:100240004346BDE8F09FD2B201E000F8012B491E01
:10025000FBD270470022F6E710B513460A46044663
:100260001946FFF7F0FF204610BD202A04DB203A94
:1002700000FA02F1002070479140C2F1200320FAF9
:1002800003F3194390407047202A04DB203A21FAF7
:1002900002F00021704721FA02F3D040C2F120029F
:1002A0009140084319467047064C074D06E0E06848
:1002B00040F0010394E8070098471034AC42F6D3AD
:1002C000FFF778FF94150008B4150008FEE700005A
:1002D000014800F06DB80000E0000020016818231C
:1002E000CAB2103AB2FBF3F2054B6FF30901032ACD
:1002F0009B5CC36500D9091D8165084670470000F5
:100300007415000810B5014600208B698A6A4FF009
:10031000C07453B1B3F5005F15D072B1012A0CD08F
:10032000022A0AD0032A09D104E01AB1012A06D010
:10033000022A03D1C96AC90100D5012010BDC96ACA
:10034000A142FAD010BD002AF7D0012AF2D0022A29
:10035000F3D0032AF3D010BD30B50468256825F426
:1003600080252560046863608368402B036803D0A0
:1003700099600068C26030BD9A600068C16030BD9D
:1003800070470000064810B50088064982B206484A
:1003900000F04CFEBDE810404FF4005000F07AB978
:1003A0008C00002000000020A0000020704700000A
:1003B0002DE9F84304464FF00009CDF8009063485A
:1003C0004FF41651A56D0068B0FBF1F72E6894F854
:1003D0005C10082000FA01F131420FD021680A6850
:1003E00052070BD50A6822F004020A6094F85C10E8
:1003F0008840A860606D40F00100606594F85C1072
:100400004FF0010808FA01F0304208D0216849692C
:10041000090604D5A860606D40F00200606594F89C
:100420005C1004208840304208D0216809688907A0
:1004300004D5A860606D40F00400606594F85C101D
:1004400010208840304218D021680968090714D567
:10045000A86020680168490304D50068000308D536
:10046000A16C07E00168C90503D4016821F0080107
:100470000160216C09B12046884794F85C10202067
:100480008840304231D021680968C9062DD5A8605E
:1004900094F8350005282068016806D0490347D53F
:1004A000006800031DD4616C1CE021F0160101609E
:1004B0002068416921F080014161206C08B9A06C7D
:1004C00020B12068016821F00801016094F85C10F7
:1004D0003F208840A86084F8349084F83580216DEE
:1004E0001FE0E16B09B120468847606D00282BD0E2
:1004F000606DC00714D0052084F8350020680168BD
:1005000021F0010101600098401C0090B84203D81E
:1005100020680068C007F6D184F8349084F83580EC
:10052000E16C002910D001B02046BDE8F043084737
:100530000168C905D5D4016821F01001016084F873
:10054000349084F83580CCE7BDE8F8839C00002027
:100550002DE9F041044600F099F906465CB100250A
:1005600084F83450022084F835002068016821F0B6
:10057000010101600DE00120BDE8F08100F086F985
:10058000801B052805D920206065032084F83500EC
:10059000F2E720680068C007F0D12268116820489F
:1005A0000140D4E901031843D4E903363343184327
:1005B00063691843A3691843E3691843236A18431E
:1005C0000843616A042903D1D4E90B131943084392
:1005D000106020684069666A20F0070130460E43CB
:1005E000012704280CD1A06A0643E06A40B12046E6
:1005F000FFF788FE20B14020606584F83570BAE7C7
:10060000206846612046FFF769FE94F85C203F2190
:1006100091408160656584F835700020ACE700008A
:100620003F8010F02DE9F0410446866D90F83400CB
:10063000002501280DD0012084F8340094F835708D
:100640000020012F07D084F8340002252846BDE899
:10065000F0810220FBE7022784F8357060652046B0
:10066000FFF77AFE94F85C103F208840B060206865
:10067000016841F016010160206C20B1206801681A
:1006800041F0080101602068016841F0010101604A
:10069000DCE77047044910B50A68024202D00860DE
:1006A000FFF7F7FF10BD0000143C01402DE9F84FA3
:1006B00000224FF0010803254FF00F0E0B6808FAD7
:1006C00002F42340A3426ED14E68012E05D0022EC3
:1006D00003D0112E01D0122E12D186684FEA420C9F
:1006E00005FA0CF7BE43CF6807FA0CF7374387606B
:1006F0004668A6430C79C4F3001494403443446024
:10070000C668570005FA07FC8C6826EA0C06BC4050
:100710003443C4604C68022C01D0122C13D1D4088D
:1007200000EB8404A346D4F8209054074FEAD46A1F
:100730000EFA0AF629EA06090E6906FA0AF646EAE8
:100740000906CBF8206004680E7924EA0C0406F050
:100750000306BE40264306604C68E4006FD53B4C60
:10076000266846F480462660246822F0030604F4D6
:1007700080440094364C3444A446D4F80848960784
:10078000360F0EFA06F7BC43324FB84201D10027AC
:100790002EE0314FB84201D1012729E02F4FB84256
:1007A00002D1022724E04AE02D4FB84201D10327AD
:1007B0001EE02C4FB84201D1042719E02A4FB8425D
:1007C00001D1052714E0294FB84201D106270FE0D7
:1007D000274FB84201D107270AE0264FB84201D17E
:1007E000082705E0244FB84201D1092700E00A2775
:1007F000B7402743CCF80878204E34684F689C43B4
:10080000FF0300D51C4334601C4E361D34684F680E
:100810009C43BF0300D51C433460184E083634682F
:100820004F689C43FF0200D51C433460134E0C36C6
:1008300034684F689C43BF0200D51C433460521C8F
:10084000102AFFF43BAFBDE8F88F000044380240A7
:100850000030014000000240000402400008024055
:10086000000C024000100240001402400018024038
:10087000001C02400020024000240240003C0140D5
:100880000AB1816170470904FBE7000001488068F4
:1008900070470000900000200248816802781144EF
:1008A00081607047900000200B4810B5016841F44A
:1008B00000710160016841F480610160016841F4E8
:1008C00080710160032000F06FF8002000F006F84E
:1008D00000F024F8002010BD003C024070B50D4D22
:1008E00004464FF47A712878B1FBF0F00A490968A0
:1008F000B1FBF0F000F002FB48B9102C07D2002247
:100900002146501E00F030F800206C6070BD0120C0
:1009100070BD0000900000209C0000200A4808B52F
:10092000016841F480410160006800F4804000905B
:100930000548001F016841F080510160006800F027
:100940008050009008BD000044380240002809DBB8
:1009500000F01F02012191404009800000F1E020D9
:10096000C0F8001170470000F0B40E4B1B680C4635
:10097000C3F30223C3F10705042D00D90425191D73
:10098000072901D2002300E0DB1E012606FA05F14B
:10099000491E214099409E40761E16403143F0BCCE
:1009A00000F099BD0CED00E0064900F00702086870
:1009B0004FF6FF03184040EA0220034A1043086044
:1009C000704700000CED00E00000FA052DE9F0474B
:1009D0000E46050065D0DFF81481D8F80000F7B2A4
:1009E00000F00F00B04207D288F80070D8F800007D
:1009F00000F00F00B04254D128683D4C810712D559
:100A0000400703D5206840F4E050206028780007B4
:100A100003D5206840F4604020602068A96820F079
:100A2000F000084320602878C0072DD0304968685E
:100A30000839012812D0022813D0032811D00968E0
:100A4000890700292DDA216821F003010143216083
:100A5000FFF71CFF814641F2883A0EE009688903DE
:100A6000EFE709688901ECE7FFF710FFA0EB090148
:100A7000514502D90320BDE8F0872068696800F07D
:100A80000C00B0EB810FEFD1D8F80010404601F018
:100A90000F01B14207D90770006800F00F00B042A3
:100AA00001D00120E7E72878400705D52068E968EC
:100AB00020F4E050084320602878000706D520681D
:100AC000296920F4604040EAC100206000F038F855
:100AD0002168084AC1F30311515CC8400649086007
:100AE00006480068FFF7FAFE0020C4E7003C024019
:100AF000083802407C1500089C000020940000206B
:100B00000448054900680968044AC1F38221515C20
:100B1000C84070479C000020083802408C1500082F
:100B20000448054900680968044AC1F34231515C30
:100B3000C84070479C000020083802408C1500080F
:100B4000154810B5006810F00C02144813D041107D
:100B5000042A0FD0082A0ED10F4C241F22682368C4
:100B600002F03F025B0207D52068C0F38810A0FBAB
:100B7000010106E0084610BD2168C1F38811A1FB00
:100B800000010023FFF72EFB2168C1F30141491C3E
:100B90004900B0FBF1F010BD083802400024F40019
:100BA0002DE9F84F040076D02078DFF838A3CE4D39
:100BB000C00749D0DAF800105046C1F3810101297D
:100BC00008D00068C0F3810002280AD1281D0068FF
:100BD000400206D52868800336D560680028E2D038
:100BE00032E06068B0F5803F10D0B0F5A02F2868E3
:100BF00010D020F480302860286820F480202860FD
:100C00006068A0B1FFF742FE06460CE0286840F499
:100C10008030F4E740F480202860F7E7FFF736FEE5
:100C2000801B642873D828688003F7D50CE0FFF791
:100C30002DFE064605E000BFFFF728FE801B642856
:100C4000F0D828688003F7D42078DFF8A0828007E6
:100C50004FF000093ED5DAF80010504611F00C0FA5
:100C600009D00068C0F3810002280BD19D48001F05
:100C70000068400206D42868800715D5E06801287E
:100C800009D111E0E068B8B10120C8F80000FFF711
:100C9000FDFD064605E020E1FFF7F8FD801B022878
:100CA000C0D828688007F7D52868216920F0F800A7
:100CB00040EAC10028600DE0C8F80090FFF7E6FDAB
:100CC000064604E0FFF7E2FD801B02281FD82868D3
:100CD0008007F7D42078000722D5824E84486169C6
:100CE0006C3671B101210160FFF7D0FD074604E0C9
:100CF000FFF7CCFDC01B022809D830688007F7D564
:100D00000EE0C0F80090FFF7C1FD074605E082E065
:100D1000FFF7BCFDC01B02287DD830688007F7D4E0
:100D20002078400768D5DFF8BCB100270BF1380BFD
:100D3000DBF80000C0000BD4DBF8001041F080515C
:100D4000CBF80010DBF80000012700F08050009085
:100D5000684E3068C00510D4306840F48070306050
:100D6000FFF794FD009005E0FFF790FD0099401A11
:100D7000022850D83068C005F6D55A4EA0686836AB
:100D800001280FD00528306810D020F00100306015
:100D9000306820F004003060A068B8B1FFF776FD3D
:100DA00000900FE0306840F00100F4E740F00400EC
:100DB0003060F7E7FFF76AFD0099411A41F2883089
:100DC000814266D830688007F4D50EE0FFF75EFDFB
:100DD000009007E0FFF75AFD0099411A41F2883070
:100DE000814256D830688007F4D42FB1DBF8001068
:100DF00021F08051CBF80010A069D0B3DAF80020C0
:100E00005146C2F38102022A4AD00228484607D03E
:100E1000C8F8600000E03CE0FFF738FD04463BE026
:100E20004746C8F86000FFF731FD064605E000BF01
:100E3000FFF72CFD801B02282BD828688001F7D4EF
:100E4000D4E907010843A16A2B4A490802EB014192
:100E5000626A41EA8211084394F82C1040EA016169
:100E60002048001F016001203866FFF70FFD04468F
:100E700005E034E0FFF70AFD001B022809D82868C6
:100E80008001F7D52BE000BFFFF700FD001B022813
:100E900002D90320BDE8F88F28688001F4D41EE051
:100EA0000128F7D00868E26900F48001914214D16A
:100EB000226A00F03F0191420FD147F6C071626A89
:100EC0000140914209D1A26A00F44031914204D11B
:100ED000E16A00F07060884201D00120DAE700206A
:100EE000D8E70000083802400038024000004742BE
:100EF000800E4742007000400000FFFF10B5401E0A
:100F0000B0F1807F01D3012010BD4FF0E02460617B
:100F10000F21601700F0DFFA0020A0610720206198
:100F2000002010BD704770B5040004D094F839005B
:100F3000002510B106E0012070BD84F8385020462D
:100F400000F022F8242084F839002068C16821F4D8
:100F50000051C160204600F029FA2068016921F49F
:100F6000904101612068416921F02A0141612068B6
:100F7000C16841F40051C160E563202084F8390064
:100F800084F83A00002070BD70B586B00646142182
:100F90006846FFF75FF92049306888423AD11F4818
:100FA0000025016841F480210160006800F4802080
:100FB00005901A481038016841F008010160006886
:100FC000694600F0080005904FF440700090022040
:100FD0000190012002900320039007200490104804
:100FE000FFF764FB104C0F4820604FF0006060601A
:100FF0004020C4E902050001C4E90405A561E561DA
:10100000256220466562FFF7A3FA08B1FFF7CEF923
:101010003463A66306B070BD00480040403802400B
:10102000000C024058600240E000002070B5044609
:1010300090F83900202830D169B362B394F83800B1
:1010400001282AD0012084F838002162A284E28499
:101050000025E563212084F83900236B1048D8630C
:10106000236B10481864236B0F48D864206B134619
:1010700005652668206B321DFFF7D4FA21686FF0F2
:101080004000086084F838502068416941F08001D0
:101090004161002070BD012070BD022070BD0000C4
:1010A0004713000875130008FD12000870477047C9
:1010B000FEE700002DE9F04F87B014216846FFF7E6
:1010C000C9F860480024016841F00401016001682A
:1010D00001F004010591016841F08001016001689F
:1010E00001F080010591016841F001010160016892
:1010F00001F001010591016841F002010160016800
:1011000001F002010591016841F0080101600168E8
:1011100001F008010591016841F04001016000689B
:10112000DFF824B100F040004FF4814A059000221E
:1011300051465846FFF7A4FB002240214348FFF7E1
:101140009FFB4FF40079002249464148FFF798FB86
:101150004FF400583F48CDF80080CDE901046946BE
:101160003B48FFF7A3FA32200225CDE9000502AA89
:1011700003260B2782E8D00069463548FFF796FA28
:101180008620CDE9000502AA694682E8D0003248EF
:10119000FFF78CFA02AA694682E8D000CDE9008503
:1011A0005846FFF783FA4FF00108CDF800A0CDE9CB
:1011B0000184694658460394FFF778FA402000906E
:1011C000CDE90184694621480394FFF76FFA802036
:1011D000CDE9000469461D480294FFF767FACDF88F
:1011E0000090CDE90184694619480394FFF75EFA3F
:1011F0004FF4E850CDE9000502940A20CDE90360E0
:1012000069461548FFF752FACDE90094694612483D
:101210000294FFF74BFA4FF42050CDE9000502AAE3
:10122000694682E8D0000948FFF740FA00221146DB
:101230002820FFF799FB2820FFF788FB07B0BDE8BF
:10124000F08F0000303802400004024000180240D5
:10125000000802400000111000000240FEE7704745
:1012600070477047FFF718BB10B592B03021684641
:10127000FEF7F0FF14210CA8FEF7ECFF164800243F
:10128000016841F080510160006800F080501190C9
:101290001248016821F4404141F480410160006836
:1012A000069400F440401190022000900120039029
:1012B000102004906846FFF773FC0F20CDE90C0462
:1012C0004FF48050CDE90E4000210CA81094FFF798
:1012D0007DFB12B010BD000040380240007000409D
:1012E0000548016841F47001016003494FF0006056
:1012F000803908607047000088ED00E070B5846BAD
:101300002068406994F83910C0F3C01000252129E5
:1013100004D118B1E584204600F03FF82068406908
:1013200094F83A10C0F38010222904D118B1E58551
:10133000204600F024F8E06B40F01000E063204607
:10134000FFF7F0FD70BD10B50146806B09680968B4
:10135000C9050CD40021C18401684A6922F08002C9
:101360004A610068C16841F04001C16010BDFFF7EB
:101370009DFE10BD10B5806BFFF799FE10BD016892
:10138000CA6822F49072CA6001684A6922F00102B8
:101390004A61202180F83A1070470168CA6822F03B
:1013A000C002CA60202180F8391070472DE9F04151
:1013B000044600680169E26821F44051114301616B
:1013C0002169A068E2690843616911430843216803
:1013D000CA6849F20C639A430243CA6020684169B3
:1013E000A26921F4407111434161E0691927642524
:1013F0003226B0F5004F354A354920684FF00008D5
:1014000006D0884201D0904236D1FFF789FB35E003
:10141000884201D0904202D1FFF782FB01E0FFF742
:101420006FFB61684A18A0FB070148EB0803FEF751
:10143000D9FE0146B0FBF5F00201B1FBF5F06FF00B
:101440001803584301EB800006EBC000B0FBF5F039
:1014500000F0F80002EB4002B1FBF5F0584301EB5D
:10146000800006EBC000B0FBF5F000F0070021683B
:1014700010448860BDE8F081FFF742FB61688B0F84
:101480008A00A0FB0701FEF7ADFE0146B0FBF5F0B8
:101490006FF01802504301EB800006EB0010B0FB28
:1014A000F5F000F0F002B1FBF5F002EB0012B1FB39
:1014B000F5F06FF01803584301EB800006EB0010C5
:1014C000B0FBF5F000F00F00D1E700000014014080
:1014D00000100140FEE70907090E002804DB00F1B7
:1014E000E02080F80014704700F00F0000F1E020C9
:1014F00080F8141D704702E008C8121F08C1002AB6
:10150000FAD170477047002001E001C1121F002A84
:10151000FBD1704708B5FFF7C7F9FFF7A5FEFFF746
:10152000C9FD11480024016841F400110160006800
:10153000224600F40010009021460E20FFF714FA16
:101540000E20FFF703FA0A48084901604FF4E13121
:10155000C0E901140C21C460C0E904418461C46184
:10156000FFF7E1FCFEE70000303802400048004091
:10157000A000002000061016000610160000000053
:101580000000000001020304060708090000000033
:1015900001020304B415000800000020A0000000B0
:1015A000F614000854160008A0000020A004000053
:1015B0000615000848617070792062697274686469
:1015C00061792044656172204E6568612020486120
:1015D000707079206C6F6E67206C69666520746F1F
:1015E00020796F7521212120486170707920622750
:1015F0006461792064656172204E6568612E2E20D9
:101600004861707079206C6F6E67206C6966652028
:10161000746F20796F752121212121213E3E444D97
:1016200041202D2D20726571756573742066696E79
:1016300069736865642E2E2E2E2E21212100000054
:101640008A000000010000001000000000000000FF
:041650000024F4007E
:04000005080001AD41
:00000001FF
