:020000040800F2
:1000000078040020C10100082B110008150F00081A
:1000100029110008CD020008C911000800000000E5
:100020000000000000000000000000002F11000888
:1000300081030008000000002D11000831110008A4
:10004000DB010008DB010008DB010008DB01000820
:10005000DB010008DB010008DB010008DB01000810
:10006000DB010008DB010008DB010008DB01000800
:10007000DB010008DB010008DB010008DB010008F0
:10008000DB010008DB010008DB010008DB010008E0
:10009000DB010008DB010008DB010008DB010008D0
:1000A000DB010008DB010008DB010008DB010008C0
:1000B000DB010008DB010008DB010008DB010008B0
:1000C000DB010008DB010008DB010008DB010008A0
:1000D000DB010008DB010008DB010008DB01000890
:1000E000DB010008DB010008DB010008DB01000880
:1000F000DB010008DB010008DB010008DB01000870
:10010000DB010008DB010008DB010008DB0100085F
:10011000DB010008DB010008DB010008DB0100084F
:10012000D1020008DB010008DB010008DB01000848
:10013000DB010008DB010008DB010008DB0100082F
:10014000DB010008DB010008DB010008DB0100081F
:10015000DB010008DB010008DB010008DB0100080F
:10016000DB010008DB010008DB010008DB010008FF
:10017000DB010008DB010008DB01000800000000D3
:10018000DB010008DB010008DB010008DB010008DF
:10019000DB010008DB010008DB010008DB010008CF
:1001A000DB010008DB010008DB010008DFF80CD0F0
:1001B00000F07AF8004800470D120008780400208B
:1001C0000648804706480047FEE7FEE7FEE7FEE7F1
:1001D000FEE7FEE7FEE7FEE7FEE7FEE7AD110008FB
:1001E000AD0100082DE9F05F0546002092469B46D0
:1001F00088460646814640241BE02846414647463D
:10020000224600F041F853465A46C01A914110D395
:1002100011461846224600F028F82D1A67EB01080F
:100220004F4622460120002100F01FF817EB00097D
:100230004E41201EA4F10104DFDC484631462A4627
:100240004346BDE8F09FD2B201E000F8012B491E01
:10025000FBD270470022F6E710B513460A46044663
:100260001946FFF7F0FF204610BD202A04DB203A94
:1002700000FA02F1002070479140C2F1200320FAF9
:1002800003F3194390407047202A04DB203A21FAF7
:1002900002F00021704721FA02F3D040C2F120029F
:1002A0009140084319467047064C074D06E0E06848
:1002B00040F0010394E8070098471034AC42F6D3AD
:1002C000FFF778FF7C1200089C120008FEE7000090
:1002D000014800F057B800001800002001681823FA
:1002E000CAB2103AB2FBF3F2054B6FF30901032ACD
:1002F0009B5CC36500D9091D8165084670470000F5
:100300006412000810B5014600208B698A6A4FF01C
:10031000C07453B1B3F5005F15D072B1012A0CD08F
:10032000022A0AD0032A09D104E01AB1012A06D010
:10033000022A03D1C96AC90100D5012010BDC96ACA
:10034000A142FAD010BD002AF7D0012AF2D0022A29
:10035000F3D0032AF3D010BD30B50468256825F426
:1003600080252560046863608368402B036803D0A0
:1003700099600068C26030BD9A600068C16030BD9D
:10038000704700002DE9F84304464FF00009CDF80E
:10039000009063484FF41651A56D0068B0FBF1F76B
:1003A0002E6894F85C10082000FA01F131420FD059
:1003B00021680A6852070BD50A6822F004020A6015
:1003C00094F85C108840A860606D40F001006065A2
:1003D00094F85C104FF0010808FA01F0304208D0A0
:1003E00021684969090604D5A860606D40F00200E3
:1003F000606594F85C1004208840304208D0216881
:100400000968890704D5A860606D40F00400606544
:1004100094F85C1010208840304218D02168096898
:10042000090714D5A86020680168490304D500684D
:10043000000308D5A16C07E00168C90503D4016871
:1004400021F008010160216C09B12046884794F829
:100450005C1020208840304231D021680968C906EC
:100460002DD5A86094F8350005282068016806D0CD
:10047000490347D5006800031DD4616C1CE021F0DE
:10048000160101602068416921F080014161206C02
:1004900008B9A06C20B12068016821F00801016052
:1004A00094F85C103F208840A86084F8349084F869
:1004B0003580216D1FE0E16B09B120468847606DF2
:1004C00000282BD0606DC00714D0052084F83500BB
:1004D0002068016821F0010101600098401C009033
:1004E000B84203D820680068C007F6D184F8349079
:1004F00084F83580E16C002910D001B02046BDE8B9
:10050000F04308470168C905D5D4016821F01001FE
:10051000016084F8349084F83580CCE7BDE8F88336
:10052000140000202DE9F041044600F0C7F906460A
:100530005CB1002584F83450022084F8350020682E
:10054000016821F0010101600DE00120BDE8F081AA
:1005500000F0B4F9801B052805D920206065032030
:1005600084F83500F2E720680068C007F0D12268FF
:10057000116820480140D4E901031843D4E9033647
:100580003343184363691843A3691843E369184365
:10059000236A18430843616A042903D1D4E90B1381
:1005A00019430843106020684069666A20F007011B
:1005B00030460E43012704280CD1A06A0643E06AA6
:1005C00040B12046FFF79EFE20B14020606584F8D0
:1005D0003570BAE7206846612046FFF77FFE94F841
:1005E0005C203F2191408160656584F83570002072
:1005F000ACE700003F8010F010B590F834400023C5
:10060000012C0CD0012480F8344090F83540012CA6
:1006100007D00123002180F83410184610BD0220B5
:1006200010BD0629F6D2DFE801F0030507090B0D1E
:10063000C263EFE70264EDE74264EBE78264E9E757
:10064000C264E7E70265E5E72DE9F0410446866DFF
:1006500090F83400002501280DD0012084F83400E2
:1006600094F835700020012F07D084F8340002255B
:100670002846BDE8F0810220FBE7022784F83570A8
:1006800060652046FFF768FE94F85C103F208840C4
:10069000B0602068016841F016010160206C20B153
:1006A0002068016841F0080101602068016841F09C
:1006B00001010160DCE7000070B5044600F0FEF8BF
:1006C0000546601C02D004480078044400F0F6F8A7
:1006D000401BA042FAD370BD080000202DE9F84F5E
:1006E00000224FF0010803254FF00F0E0B6808FAA7
:1006F00002F42340A3426ED14E68012E05D0022E93
:1007000003D0112E01D0122E12D186684FEA420C6E
:1007100005FA0CF7BE43CF6807FA0CF7374387603A
:100720004668A6430C79C4F30014944034434460F3
:10073000C668570005FA07FC8C6826EA0C06BC4020
:100740003443C4604C68022C01D0122C13D1D4085D
:1007500000EB8404A346D4F8209054074FEAD46AEF
:100760000EFA0AF629EA06090E6906FA0AF646EAB8
:100770000906CBF8206004680E7924EA0C0406F020
:100780000306BE40264306604C68E4006FD53B4C30
:10079000266846F480462660246822F0030604F4A6
:1007A00080440094364C3444A446D4F80848960754
:1007B000360F0EFA06F7BC43324FB84201D100277C
:1007C0002EE0314FB84201D1012729E02F4FB84226
:1007D00002D1022724E04AE02D4FB84201D103277D
:1007E0001EE02C4FB84201D1042719E02A4FB8422D
:1007F00001D1052714E0294FB84201D106270FE0A7
:10080000274FB84201D107270AE0264FB84201D14D
:10081000082705E0244FB84201D1092700E00A2744
:10082000B7402743CCF80878204E34684F689C4383
:10083000FF0300D51C4334601C4E361D34684F68DE
:100840009C43BF0300D51C433460184E08363468FF
:100850004F689C43FF0200D51C433460134E0C3696
:1008600034684F689C43BF0200D51C433460521C5F
:10087000102AFFF43BAFBDE8F88F00004438024077
:100880000030014000000240000402400008024025
:10089000000C024000100240001402400018024008
:1008A000001C02400020024000240240003C0140A5
:1008B0000AB1816170470904FBE7000001488068C4
:1008C0007047000008000020024881680278114447
:1008D00081607047080000200B4810B5016841F4A2
:1008E00000710160016841F480610160016841F4B8
:1008F00080710160032000F06FF8002000F006F81E
:1009000000F024F8002010BD003C024070B50D4DF1
:1009100004464FF47A712878B1FBF0F00A4909686F
:10092000B1FBF0F000F0E2FA48B9102C07D2002237
:100930002146501E00F030F800206C6070BD012090
:1009400070BD000008000020140000200A4808B50F
:10095000016841F480410160006800F4804000902B
:100960000548001F016841F080510160006800F0F7
:100970008050009008BD000044380240002809DB88
:1009800000F01F02012191404009800000F1E020A9
:10099000C0F8001170470000F0B40E4B1B680C4605
:1009A000C3F30223C3F10705042D00D90425191D43
:1009B000072901D2002300E0DB1E012606FA05F11B
:1009C000491E214099409E40761E16403143F0BC9E
:1009D00000F0FBBB0CED00E0064900F007020868E0
:1009E0004FF6FF03184040EA0220034A1043086014
:1009F000704700000CED00E00000FA052DE9F0471B
:100A00000E46050065D0DFF81481D8F80000F7B273
:100A100000F00F00B04207D288F80070D8F800004C
:100A200000F00F00B04254D128683D4C810712D528
:100A3000400703D5206840F4E05020602878000784
:100A400003D5206840F4604020602068A96820F049
:100A5000F000084320602878C0072DD0304968682E
:100A60000839012812D0022813D0032811D00968B0
:100A7000890700292DDA216821F003010143216053
:100A8000FFF71CFF814641F2883A0EE009688903AE
:100A9000EFE709688901ECE7FFF710FFA0EB090118
:100AA000514502D90320BDE8F0872068696800F04D
:100AB0000C00B0EB810FEFD1D8F80010404601F0E8
:100AC0000F01B14207D90770006800F00F00B04273
:100AD00001D00120E7E72878400705D52068E968BC
:100AE00020F4E050084320602878000706D52068ED
:100AF000296920F4604040EAC100206000F018F845
:100B00002168084AC1F30311515CC84006490860D6
:100B100006480068FFF7FAFE0020C4E7003C0240E8
:100B2000083802406C120008140000200C0000205D
:100B3000154810B5006810F00C02144813D041108D
:100B4000042A0FD0082A0ED10F4C241F22682368D4
:100B500002F03F025B0207D52068C0F38810A0FBBB
:100B6000010106E0084610BD2168C1F38811A1FB10
:100B700000010023FFF736FB2168C1F30141491C46
:100B80004900B0FBF1F010BD083802400024F40029
:100B90002DE9F84F040076D02078DFF838A3CE4D49
:100BA000C00749D0DAF800105046C1F3810101298D
:100BB00008D00068C0F3810002280AD1281D00680F
:100BC000400206D52868800336D560680028E2D048
:100BD00032E06068B0F5803F10D0B0F5A02F2868F3
:100BE00010D020F480302860286820F4802028600D
:100BF0006068A0B1FFF762FE06460CE0286840F48A
:100C00008030F4E740F480202860F7E7FFF756FED5
:100C1000801B642873D828688003F7D50CE0FFF7A1
:100C20004DFE064605E000BFFFF748FE801B642826
:100C3000F0D828688003F7D42078DFF8A0828007F6
:100C40004FF000093ED5DAF80010504611F00C0FB5
:100C500009D00068C0F3810002280BD19D48001F15
:100C60000068400206D42868800715D5E06801288E
:100C700009D111E0E068B8B10120C8F80000FFF721
:100C80001DFE064605E020E1FFF718FE801B022846
:100C9000C0D828688007F7D52868216920F0F800B7
:100CA00040EAC10028600DE0C8F80090FFF706FE9A
:100CB000064604E0FFF702FE801B02281FD82868C2
:100CC0008007F7D42078000722D5824E84486169D6
:100CD0006C3671B101210160FFF7F0FD074604E0B9
:100CE000FFF7ECFDC01B022809D830688007F7D554
:100CF0000EE0C0F80090FFF7E1FD074605E082E056
:100D0000FFF7DCFDC01B02287DD830688007F7D4D0
:100D10002078400768D5DFF8BCB100270BF1380B0D
:100D2000DBF80000C0000BD4DBF8001041F080516C
:100D3000CBF80010DBF80000012700F08050009095
:100D4000684E3068C00510D4306840F48070306060
:100D5000FFF7B4FD009005E0FFF7B0FD0099401AE1
:100D6000022850D83068C005F6D55A4EA0686836BB
:100D700001280FD00528306810D020F00100306025
:100D8000306820F004003060A068B8B1FFF796FD2D
:100D900000900FE0306840F00100F4E740F00400FC
:100DA0003060F7E7FFF78AFD0099411A41F2883079
:100DB000814266D830688007F4D50EE0FFF77EFDEB
:100DC000009007E0FFF77AFD0099411A41F2883060
:100DD000814256D830688007F4D42FB1DBF8001078
:100DE00021F08051CBF80010A069D0B3DAF80020D0
:100DF0005146C2F38102022A4AD00228484607D04F
:100E0000C8F8600000E03CE0FFF758FD04463BE016
:100E10004746C8F86000FFF751FD064605E000BFF1
:100E2000FFF74CFD801B02282BD828688001F7D4DF
:100E3000D4E907010843A16A2B4A490802EB0141A2
:100E4000626A41EA8211084394F82C1040EA016179
:100E50002048001F016001203866FFF72FFD04467F
:100E600005E034E0FFF72AFD001B022809D82868B6
:100E70008001F7D52BE000BFFFF720FD001B022803
:100E800002D90320BDE8F88F28688001F4D41EE061
:100E90000128F7D00868E26900F48001914214D17A
:100EA000226A00F03F0191420FD147F6C071626A99
:100EB0000140914209D1A26A00F44031914204D12B
:100EC000E16A00F07060884201D00120DAE700207A
:100ED000D8E70000083802400038024000004742CE
:100EE000800E4742007000400000FFFF10B5401E1A
:100EF000B0F1807F01D3012010BD4FF0E02460618C
:100F00000F21601700F061F90020A0610720206127
:100F1000002010BDFEE70000144808B5026800215B
:100F200042F4800202600068114A00F480000090E0
:100F30001048C0E900218022C0E90221016141611D
:100F400081610422C161C0E908120322C0E90A21BB
:100F50000163FFF7E7FA002211463820FFF71CFD76
:100F6000BDE808403820FFF709BD000030380240D6
:100F700010640240180000202DE9F04F87B01421C2
:100F80006846FFF767F961480024016841F00401F1
:100F90000160016801F004010591016841F08001E0
:100FA0000160016801F080010591016841F00101D3
:100FB0000160016801F001010591016841F0020141
:100FC0000160016801F002010591016841F008012A
:100FD0000160016801F008010591016841F04001DC
:100FE00001600068DFF828B100F040004FF4814A4A
:100FF0000590002251465846FFF75AFC0022402136
:101000004448FFF755FC4FF4007900224946424816
:10101000FFF74EFC4FF400584048CDF80080CDE972
:10102000010469463C48FFF759FB32200225CDE90F
:10103000000502AA03260B2782E8D000694636483D
:10104000FFF74CFB8620CDE9000502AA694682E83D
:10105000D0003348FFF742FB02AA694682E8D0007D
:10106000CDE900855846FFF739FB4FF00108CDF870
:1010700000A0CDE90184694658460394FFF72EFB92
:101080003002CDE9000502940720CDE903606946EE
:101090002448FFF723FB40200090CDE901846946F6
:1010A0001C480394FFF71AFB8020CDE90004694631
:1010B00018480294FFF712FBCDF80090CDE90184A7
:1010C000694615480394FFF709FB4FF4E850CDE952
:1010D000000502940A20CDE9036069461048FFF735
:1010E000FDFACDE9009469460D480294FFF7F6FA3F
:1010F0004FF42050CDE9000502AA694682E8D000ED
:101100000448FFF7EBFA07B0BDE8F08F3038024033
:1011100000040240001802400008024000001110C4
:1011200000000240000C0240FEE770477047704725
:10113000FFF7CABB10B592B030216846FFF78AF8B6
:1011400014210CA8FFF786F816480024016841F026
:1011500080510160006800F08050119012480168D1
:1011600021F4404141F4804101600068069400F49C
:101170004040119002200090012003901020049024
:101180006846FFF705FD0F20CDE90C044FF48050B1
:10119000CDE90E4000210CA81094FFF72FFC12B0EF
:1011A00010BD000040380240007000400548016852
:1011B00041F47001016003494FF00060803908601C
:1011C0007047000088ED00E0FEE70907090E0028DF
:1011D00004DB00F1E02080F80014704700F00F00FD
:1011E00000F1E02080F8141D704702E008C8121FCB
:1011F00008C1002AFAD170477047002001E001C100
:10120000121F002AFBD1704770470000FFF764FBF4
:10121000FFF790FFFFF7B0FEFFF77EFE0D4A0021BB
:101220000D48FFF7E9F90D4E0D4D4FF47A74012387
:1012300032460B490848FFF707FA2046FFF73CFA09
:1012400001233246291D0448FFF7FEF92046FFF727
:1012500033FAECE7091200081800002014040240D9
:101260000000002000061016000610160000000006
:101270000000000001020304060708099C12000890
:101280000000002018000000EA110008B412000855
:101290001800002060040000FA110008FF000000A0
:1012A000000000000100000010000000000000002D
:0412B0000024F40022
:04000005080001AD41
:00000001FF
